:100000000C942A000C9414060C9434000C943400C4
:100010000C9434000C9434000C9434000C94340090
:100020000C9434000C9434000C9434000C94340080
:100030000C9434000C9434000C9434000C94340070
:100040000C9434000C9434000C9434000C94340060
:100050000C94340011241FBECFE5D8E0DEBFCDBF25
:100060000E94F5050C9440060C940000DF93CF939A
:1000700000D000D00F92CDB7DEB789836A834B835F
:100080008981282F30E03D832C838C819D818230B3
:10009000910509F448C02C813D812330310534F4A9
:1000A0008C819D818130910571F0CBC02C813D8187
:1000B0002330310509F467C08C819D81843091051E
:1000C00009F491C0BEC08B818823A9F4AAE3B0E0F3
:1000D000EAE3F0E08081482F8A81282F30E081E038
:1000E00090E0022E02C0880F991F0A94E2F78095D3
:1000F00084238C93A6C08B81813009F0A2C0AAE32F
:10010000B0E0EAE3F0E08081482F8A81282F30E0D8
:1001100081E090E0022E02C0880F991F0A94E2F756
:10012000842B8C938EC08B818823A9F4A7E3B0E045
:10013000E7E3F0E08081482F8A81282F30E081E0DA
:1001400090E0022E02C0880F991F0A94E2F7809572
:1001500084238C9376C08B81813009F072C0A7E331
:10016000B0E0E7E3F0E08081482F8A81282F30E07B
:1001700081E090E0022E02C0880F991F0A94E2F7F6
:10018000842B8C935EC08B818823A9F4A4E3B0E018
:10019000E4E3F0E08081482F8A81282F30E081E07D
:1001A00090E0022E02C0880F991F0A94E2F7809512
:1001B00084238C9346C08B81813009F042C0A4E334
:1001C000B0E0E4E3F0E08081482F8A81282F30E01E
:1001D00081E090E0022E02C0880F991F0A94E2F796
:1001E000842B8C932EC08B818823A9F4A1E3B0E0EB
:1001F000E1E3F0E08081482F8A81282F30E081E020
:1002000090E0022E02C0880F991F0A94E2F78095B1
:1002100084238C9316C08B81813099F4A1E3B0E0E4
:10022000E1E3F0E08081482F8A81282F30E081E0EF
:1002300090E0022E02C0880F991F0A94E2F7842BE7
:100240008C930F900F900F900F900F90CF91DF91A4
:100250000895DF93CF9300D000D00F92CDB7DEB7D3
:1002600089836A834B838981282F30E03D832C83E7
:100270008C819D818230910509F448C02C813D819B
:100280002330310534F48C819D818130910571F0EA
:10029000CBC02C813D812330310509F467C08C81AE
:1002A0009D818430910509F491C0BEC08B81882363
:1002B000A9F4ABE3B0E0EBE3F0E08081482F8A8162
:1002C000282F30E081E090E0022E02C0880F991FB5
:1002D0000A94E2F7809584238C93A6C08B818130A9
:1002E00009F0A2C0ABE3B0E0EBE3F0E08081482F7F
:1002F0008A81282F30E081E090E0022E02C0880F32
:10030000991F0A94E2F7842B8C938EC08B818823EB
:10031000A9F4A8E3B0E0E8E3F0E08081482F8A8107
:10032000282F30E081E090E0022E02C0880F991F54
:100330000A94E2F7809584238C9376C08B81813078
:1003400009F072C0A8E3B0E0E8E3F0E08081482F54
:100350008A81282F30E081E090E0022E02C0880FD1
:10036000991F0A94E2F7842B8C935EC08B818823BB
:10037000A9F4A5E3B0E0E5E3F0E08081482F8A81AD
:10038000282F30E081E090E0022E02C0880F991FF4
:100390000A94E2F7809584238C9346C08B81813048
:1003A00009F042C0A5E3B0E0E5E3F0E08081482F2A
:1003B0008A81282F30E081E090E0022E02C0880F71
:1003C000991F0A94E2F7842B8C932EC08B8188238B
:1003D000A9F4A2E3B0E0E2E3F0E08081482F8A8153
:1003E000282F30E081E090E0022E02C0880F991F94
:1003F0000A94E2F7809584238C9316C08B81813018
:1004000099F4A2E3B0E0E2E3F0E08081482F8A8132
:10041000282F30E081E090E0022E02C0880F991F63
:100420000A94E2F7842B8C930F900F900F900F900B
:100430000F90CF91DF910895DF93CF9300D000D03C
:100440000F92CDB7DEB78A836B838A81282F30E085
:100450003D832C834C815D814230510541F18C817B
:100460009D818330910534F42C813D81213031050B
:1004700061F052C04C815D814330510551F18C8156
:100480009D8184309105B9F147C0E9E3F0E08081B6
:10049000282F30E08B81882F90E0A90102C055956C
:1004A00047958A95E2F7CA018170898335C0E6E3F2
:1004B000F0E08081282F30E08B81882F90E0A90127
:1004C00002C0559547958A95E2F7CA0181708983E4
:1004D00023C0E3E3F0E08081282F30E08B81882F78
:1004E00090E0A90102C0559547958A95E2F7CA01A7
:1004F0008170898311C0E0E3F0E08081282F30E033
:100500008B81882F90E0A90102C0559547958A9567
:10051000E2F7CA018170898389810F900F900F9053
:100520000F900F90CF91DF910895DF93CF9300D07C
:1005300000D0CDB7DEB789836A838981282F30E068
:100540003C832B838B819C818230910529F12B8107
:100550003C812330310534F48B819C8181309105BD
:1005600061F046C02B813C812330310521F18B8124
:100570009C818430910571F13BC08A81882321F4EC
:10058000EAE3F0E0108234C08A81813089F5EAE341
:10059000F0E08FEF80832CC08A81882321F4E7E389
:1005A000F0E0108225C08A81813011F5E7E3F0E0A8
:1005B0008FEF80831DC08A81882321F4E4E3F0E07B
:1005C000108216C08A81813099F4E4E3F0E08FEF65
:1005D00080830EC08A81882321F4E1E3F0E0108259
:1005E00007C08A81813021F4E1E3F0E08FEF80835E
:1005F0000F900F900F900F90CF91DF910895DF93A0
:10060000CF9300D000D0CDB7DEB789836A838981CC
:10061000282F30E03C832B838B819C818230910595
:10062000D9F02B813C812330310534F48B819C81BE
:100630008130910561F01EC02B813C812330310552
:1006400081F08B819C818430910581F013C0EBE3B4
:10065000F0E08A8180830EC0E8E3F0E08A81808345
:1006600009C0E5E3F0E08A81808304C0E2E3F0E0C2
:100670008A8180830F900F900F900F90CF91DF9120
:100680000895DF93CF9300D000D0CDB7DEB78A8333
:100690008A81282F30E03C832B838B819C818230A0
:1006A0009105D9F02B813C812330310534F48B81C5
:1006B0009C818130910561F01EC02B813C812330EB
:1006C000310581F08B819C818430910581F013C0CC
:1006D000E9E3F0E0808189830EC0E6E3F0E0808109
:1006E000898309C0E3E3F0E08081898304C0E0E30B
:1006F000F0E08081898389810F900F900F900F9097
:10070000CF91DF910895DF93CF9300D000D0CDB784
:10071000DEB789836A838981282F30E03C832B836D
:100720008B819C818230910509F446C02B813C81EC
:100730002330310534F48B819C818130910571F037
:10074000C4C02B813C812330310509F463C08B8107
:100750009C818430910509F48BC0B7C0AAE3B0E056
:10076000EAE3F0E08081482F8A81282F30E081E0A1
:1007700090E002C0880F991F2A95E2F780958423A4
:100780008C93A0E5B0E0E0E5F0E080818B7F8C9376
:10079000ABE3B0E0EBE3F0E08081482F8A81282FC3
:1007A00030E081E090E0022E02C0880F991F0A9489
:1007B000E2F7842B8C9389C0A7E3B0E0E7E3F0E095
:1007C0008081482F8A81282F30E081E090E002C0AC
:1007D000880F991F2A95E2F7809584238C93A0E5D2
:1007E000B0E0E0E5F0E080818B7F8C93A8E3B0E09F
:1007F000E8E3F0E08081482F8A81282F30E081E013
:1008000090E0022E02C0880F991F0A94E2F7842B11
:100810008C935BC0A4E3B0E0E4E3F0E08081482F78
:100820008A81282F30E081E090E002C0880F991F74
:100830002A95E2F7809584238C93A0E5B0E0E0E56B
:10084000F0E080818B7F8C93A5E3B0E0E5E3F0E0FE
:100850008081482F8A81282F30E081E090E0022EAD
:1008600002C0880F991F0A94E2F7842B8C932DC045
:10087000A1E3B0E0E1E3F0E08081482F8A81282FF6
:1008800030E081E090E002C0880F991F2A95E2F7DE
:10089000809584238C93A0E5B0E0E0E5F0E08081D2
:1008A0008B7F8C93A2E3B0E0E2E3F0E08081482FFD
:1008B0008A81282F30E081E090E0022E02C0880F6C
:1008C000991F0A94E2F7842B8C930F900F900F904E
:1008D0000F90CF91DF910895DF93CF9300D00F92C7
:1008E000CDB7DEB789838981282F30E03B832A8307
:1008F0008A819B818230910521F12A813B812330BD
:10090000310534F48A819B818130910561F042C0C8
:100910002A813B812330310511F18A819B8184300A
:10092000910559F137C0EAE3F0E01082A0E5B0E0AC
:10093000E0E5F0E080818B7F8C93EBE3F0E01082C8
:1009400029C0E7E3F0E01082A0E5B0E0E0E5F0E0E8
:1009500080818B7F8C93E8E3F0E010821BC0E4E39E
:10096000F0E01082A0E5B0E0E0E5F0E080818B7F70
:100970008C93E5E3F0E010820DC0E1E3F0E010823B
:10098000A0E5B0E0E0E5F0E080818B7F8C93E2E3CE
:10099000F0E010820F900F900F90CF91DF910895AB
:1009A000DF93CF9300D000D0CDB7DEB789836A83C1
:1009B0008981282F30E03C832B838B819C8182307E
:1009C000910509F43EC02B813C812330310534F47C
:1009D0008B819C818130910571F0A4C02B813C8179
:1009E0002330310509F453C08B819C8184309105FB
:1009F00009F473C097C0AAE3B0E0EAE3F0E08081B5
:100A0000482F8A81282F30E081E090E002C0880FD3
:100A1000991F2A95E2F7842B8C93ABE3B0E0EBE3CC
:100A2000F0E08081482F8A81282F30E081E090E03B
:100A3000022E02C0880F991F0A94E2F784278C9334
:100A400071C0A7E3B0E0E7E3F0E08081482F8A813E
:100A5000282F30E081E090E002C0880F991F2A958E
:100A6000E2F7842B8C93A8E3B0E0E8E3F0E0808128
:100A7000482F8A81282F30E081E090E0022E02C0CA
:100A8000880F991F0A94E2F784278C934BC0A4E344
:100A9000B0E0E4E3F0E08081482F8A81282F30E045
:100AA00081E090E002C0880F991F2A95E2F7842B1D
:100AB0008C93A5E3B0E0E5E3F0E08081482F8A81E4
:100AC000282F30E081E090E0022E02C0880F991FAD
:100AD0000A94E2F784278C9325C0A1E3B0E0E1E318
:100AE000F0E08081482F8A81282F30E081E090E07B
:100AF00002C0880F991F2A95E2F7842B8C93A2E3FA
:100B0000B0E0E2E3F0E08081482F8A81282F30E0D6
:100B100081E090E0022E02C0880F991F0A94E2F74C
:100B200084278C930F900F900F900F90CF91DF91AF
:100B30000895DF93CF9300D00F92CDB7DEB78983AE
:100B40008981282F30E03B832A838A819B818230F0
:100B5000910511F12A813B812330310534F48A81DA
:100B60009B818130910561F03AC02A813B8123301D
:100B70003105F1F08A819B818430910529F12FC0E4
:100B8000EAE3F0E08FEF8083ABE3B0E0EBE3F0E08B
:100B9000808180958C9323C0E7E3F0E08FEF808322
:100BA000A8E3B0E0E8E3F0E0808180958C9317C083
:100BB000E4E3F0E08FEF8083A5E3B0E0E5E3F0E06D
:100BC000808180958C930BC0E1E3F0E08FEF808310
:100BD000A2E3B0E0E2E3F0E0808180958C930F9097
:100BE0000F900F90CF91DF910895DF93CF93CDB702
:100BF000DEB781E060E041E00E94360084E062E020
:100C000040E00E94360084E062E00E948303E5E554
:100C1000F0E082E08083EFE5F0E080E88083EBE5C0
:100C2000F0E080E48083FFCF1F920F920FB60F9207
:100C300011242F933F934F935F936F937F938F93E1
:100C40009F93AF93BF93EF93FF93DF93CF93CDB772
:100C5000DEB781E060E00E94D004CF91DF91FF9188
:100C6000EF91BF91AF919F918F917F916F915F9124
:100C70004F913F912F910F900FBE0F901F9018959D
:040C8000F894FFCF16
:00000001FF
