:100000000C942A000C9434000C9434000C943400AA
:100010000C9434000C9434000C9434000C94340090
:100020000C9434000C9434000C9434000C94340080
:100030000C9434000C9434000C9434000C94340070
:100040000C9434000C9434000C9434000C94340060
:100050000C94340011241FBECFE5D8E0DEBFCDBF25
:100060000E94E3000C94F8000C940000DF93CF93FF
:10007000CDB7DEB7E6E2F0E0808180688083E6E21B
:10008000F0E0808181608083E6E2F0E08081826040
:100090008083E6E2F0E0808184608083E7E2F0E044
:1000A00080818F778083E7E2F0E080818F7B80839F
:1000B000E7E2F0E080818F7D8083CF91DF9108952A
:1000C000DF93CF9300D00F92CDB7DEB78B83A7E23B
:1000D000B0E0E7E2F0E08081807F8C93A7E2B0E0BF
:1000E000E7E2F0E090818B81892B8C93E6E2F0E0EF
:1000F000808180648083E6E2F0E0808180748823E0
:10010000D1F7E4E2F0E08081882F90E09A83898340
:10011000E5E2F0E08081882F90E0382F2227898166
:100120009A81822B932B9A83898389819A810F905C
:100130000F900F90CF91DF910895DF93CF93CDB7BC
:10014000DEB7E7E3F0E080EB8083A8E3B0E0E8E32C
:10015000F0E080818F7E8C93EDE2F0E080E580839B
:10016000CF91DF910895DF93CF93CDB7DEB7E7E36B
:10017000F0E080E48083EDE2F0E080E48083CF91E2
:10018000DF910895DF93CF9300D0CDB7DEB7898399
:10019000EFE2F0E089818083EEE2F0E080810F9071
:1001A0000F90CF91DF910895DF93CF930F92CDB74A
:1001B000DEB7EEE2F0E08081EFE2F0E080810F90C8
:1001C000CF91DF910895DF93CF930F92CDB7DEB734
:1001D0000E949D000E943600EBE3F0E081E0808306
:1001E00080E00E946000898389810E94C200F8CF6C
:0401F000F894FFCFB1
:00000001FF
