:100000000C942A000C9434040C9460040C94340076
:100010000C9434000C9434000C9434000C94340090
:100020000C9434000C9434000C9434000C94340080
:100030000C9434000C9434000C9434000C94340070
:100040000C9434000C9434000C9434000C94340060
:100050000C94340011241FBECFE5D8E0DEBFCDBF25
:100060000E94F8030C948C040C940000DF93CF934F
:1000700000D000D00F92CDB7DEB78A836B838A8120
:10008000882309F46FC08A81853008F06BC08B81AA
:10009000883008F067C08A81282F30E03D832C83A8
:1000A0004C815D814230510541F18C819D818330CD
:1000B000910534F42C813D812130310561F052C02D
:1000C0004C815D814330510551F18C819D8184309B
:1000D0009105B9F147C0E9E3F0E08081282F30E0D5
:1000E0008B81882F90E0A90102C0559547958A958C
:1000F000E2F7CA018170898335C0E6E3F0E08081D0
:10010000282F30E08B81882F90E0A90102C05595FF
:1001100047958A95E2F7CA018170898323C0E3E39A
:10012000F0E08081282F30E08B81882F90E0A901BA
:1001300002C0559547958A95E2F7CA018170898377
:1001400011C0E0E3F0E08081282F30E08B81882F20
:1001500090E0A90102C0559547958A95E2F7CA013A
:100160008170898389810F900F900F900F900F906D
:10017000CF91DF910895DF93CF93CDB7DEB7279767
:100180000FB6F894DEBF0FBECDBF89836A834B8361
:100190008981882309F4F4C08981853008F0F0C092
:1001A0008A81883008F0ECC08B81882309F075C003
:1001B0008981282F30E03F832E838E819F8182307A
:1001C000910561F12E813F812330310534F48E8118
:1001D0009F818130910569F0D3C02E813F8123300A
:1001E000310589F18E819F818430910509F440C0E9
:1001F000C7C0ABE3B0E0EBE3F0E08081482F8A8139
:10020000282F30E081E090E0022E02C0880F991F75
:100210000A94E2F7809584238C93B2C0A8E3B0E0FF
:10022000E8E3F0E08081482F8A81282F30E081E0E8
:1002300090E0022E02C0880F991F0A94E2F7809581
:1002400084238C939DC0A5E3B0E0E5E3F0E08081DA
:10025000482F8A81282F30E081E090E0022E02C0F2
:10026000880F991F0A94E2F7809584238C9388C0A5
:10027000A2E3B0E0E2E3F0E08081482F8A81282FFA
:1002800030E081E090E0022E02C0880F991F0A94AE
:10029000E2F7809584238C9373C08B81813009F0C1
:1002A0006FC08981282F30E03D832C838C819D8114
:1002B0008230910551F12C813D812330310534F498
:1002C0008C819D818130910561F05AC02C813D81E6
:1002D0002330310571F18C819D8184309105E9F1E4
:1002E0004FC0ABE3B0E0EBE3F0E08081482F8A81C0
:1002F000282F30E081E090E0022E02C0880F991F85
:100300000A94E2F7842B8C933BC0A8E3B0E0E8E3C7
:10031000F0E08081482F8A81282F30E081E090E052
:10032000022E02C0880F991F0A94E2F7842B8C9347
:1003300027C0A5E3B0E0E5E3F0E08081482F8A81A3
:10034000282F30E081E090E0022E02C0880F991F34
:100350000A94E2F7842B8C9313C0A2E3B0E0E2E3AB
:10036000F0E08081482F8A81282F30E081E090E002
:10037000022E02C0880F991F0A94E2F7842B8C93F7
:1003800027960FB6F894DEBF0FBECDBFCF91DF9199
:100390000895DF93CF9300D000D0CDB7DEB7898327
:1003A0006A838981882309F477C08981853008F0C0
:1003B00073C08A81883008F06FC08981282F30E0AF
:1003C0003C832B838B819C818230910551F12B8161
:1003D0003C812330310534F48B819C81813091053F
:1003E00061F05AC02B813C812330310571F18B8142
:1003F0009C8184309105E9F14FC0ABE3B0E0EBE3C1
:10040000F0E08081482F8A81282F30E081E090E061
:10041000022E02C0880F991F0A94E2F784278C935A
:100420003BC0A8E3B0E0E8E3F0E08081482F8A8198
:10043000282F30E081E090E0022E02C0880F991F43
:100440000A94E2F784278C9327C0A5E3B0E0E5E3A4
:10045000F0E08081482F8A81282F30E081E090E011
:10046000022E02C0880F991F0A94E2F784278C930A
:1004700013C0A2E3B0E0E2E3F0E08081482F8A817C
:10048000282F30E081E090E0022E02C0880F991FF3
:100490000A94E2F784278C930F900F900F900F909F
:1004A000CF91DF910895DF93CF93CDB7DEB7279734
:1004B0000FB6F894DEBF0FBECDBF89836A834B832E
:1004C0008981882309F4FBC08981853008F0F7C051
:1004D0008A81883008F0F3C08B81882321F08B81DA
:1004E000813009F0ECC08B81882309F075C08981C7
:1004F000282F30E03F832E838E819F8182309105AB
:1005000061F12E813F812330310534F48E819F814A
:100510008130910569F0D3C02E813F8123303105B0
:1005200089F18E819F818430910509F440C0C7C054
:10053000AAE3B0E0EAE3F0E08081482F8A81282F27
:1005400030E081E090E0022E02C0880F991F0A94EB
:10055000E2F7809584238C93B2C0A7E3B0E0E7E391
:10056000F0E08081482F8A81282F30E081E090E000
:10057000022E02C0880F991F0A94E2F78095842307
:100580008C939DC0A4E3B0E0E4E3F0E08081482FC9
:100590008A81282F30E081E090E0022E02C0880F8F
:1005A000991F0A94E2F7809584238C9388C0A1E375
:1005B000B0E0E1E3F0E08081482F8A81282F30E02D
:1005C00081E090E0022E02C0880F991F0A94E2F7A2
:1005D000809584238C9373C08B81813009F06FC028
:1005E0008981282F30E03D832C838C819D8182304E
:1005F000910551F12C813D812330310534F48C81FA
:100600009D818130910561F05AC02C813D8123305C
:10061000310571F18C819D8184309105E9F14FC0E4
:10062000AAE3B0E0EAE3F0E08081482F8A81282F36
:1006300030E081E090E0022E02C0880F991F0A94FA
:10064000E2F7842B8C933BC0A7E3B0E0E7E3F0E054
:100650008081482F8A81282F30E081E090E0022EAF
:1006600002C0880F991F0A94E2F7842B8C9327C04D
:10067000A4E3B0E0E4E3F0E08081482F8A81282FF2
:1006800030E081E090E0022E02C0880F991F0A94AA
:10069000E2F7842B8C9313C0A1E3B0E0E1E3F0E038
:1006A0008081482F8A81282F30E081E090E0022E5F
:1006B00002C0880F991F0A94E2F7842B8C93279627
:1006C0000FB6F894DEBF0FBECDBFCF91DF91089576
:1006D000DF93CF9300D000D0CDB7DEB789836A8394
:1006E00089818823B1F18981853098F58981282F06
:1006F00030E03C832B838B819C8182309105D9F043
:100700002B813C812330310534F48B819C818130F5
:10071000910561F01EC02B813C812330310581F0B1
:100720008B819C818430910581F013C0EAE3F0E075
:100730008A8180830EC0E7E3F0E08A81808309C06C
:10074000E4E3F0E08A81808304C0E1E3F0E08A81A1
:1007500080830F900F900F900F90CF91DF910895AD
:10076000DF93CF9300D000D0CDB7DEB789836A8303
:1007700089818823B1F18981853098F58981282F75
:1007800030E03C832B838B819C8182309105D9F0B2
:100790002B813C812330310534F48B819C81813065
:1007A000910561F01EC02B813C812330310581F021
:1007B0008B819C818430910581F013C0EBE3F0E0E4
:1007C0008A8180830EC0E8E3F0E08A81808309C0DB
:1007D000E5E3F0E08A81808304C0E2E3F0E08A810F
:1007E00080830F900F900F900F90CF91DF9108951D
:1007F000DF93CF93CDB7DEB781E060E041E00E94A8
:10080000530281E061E041E00E94530284E062E033
:1008100040E00E94530284E063E040E00E94530203
:10082000E5E5F0E0808181608083E5E5F0E08081AE
:100830008D7F8083E5E5F0E0808184608083E5E55D
:10084000F0E08081877F8083EBE5F0E08081806449
:100850008083EBE5F0E0808180688083EFE5F0E065
:10086000808180688083FFCF1F920F920FB60F9216
:1008700011242F933F934F935F936F937F938F93A5
:100880009F93AF93BF93EF93FF93DF93CF93CDB736
:10089000DEB781E060E00E94C901CF91DF91FF9156
:1008A000EF91BF91AF919F918F917F916F915F91E8
:1008B0004F913F912F910F900FBE0F901F90189561
:1008C0001F920F920FB60F9211242F933F934F93C5
:1008D0005F936F937F938F939F93AF93BF93EF93A8
:1008E000FF93DF93CF93CDB7DEB781E061E00E9445
:1008F000C901CF91DF91FF91EF91BF91AF919F918E
:100900008F917F916F915F914F913F912F910F90B8
:0C0910000FBE0F901F901895F894FFCFB9
:00000001FF
